{
  "contractName": "BadAuction",
  "abi": [
    {
      "constant": true,
      "inputs": [],
      "name": "getHighestBidder",
      "outputs": [
        {
          "name": "",
          "type": "address"
        }
      ],
      "payable": false,
      "stateMutability": "view",
      "type": "function"
    },
    {
      "constant": true,
      "inputs": [],
      "name": "getHighestBid",
      "outputs": [
        {
          "name": "",
          "type": "uint256"
        }
      ],
      "payable": false,
      "stateMutability": "view",
      "type": "function"
    },
    {
      "payable": true,
      "stateMutability": "payable",
      "type": "fallback"
    },
    {
      "constant": false,
      "inputs": [],
      "name": "bid",
      "outputs": [
        {
          "name": "",
          "type": "bool"
        }
      ],
      "payable": true,
      "stateMutability": "payable",
      "type": "function"
    },
    {
      "constant": false,
      "inputs": [],
      "name": "reduceBid",
      "outputs": [],
      "payable": false,
      "stateMutability": "nonpayable",
      "type": "function"
    }
  ],
  "bytecode": "0x6060604052341561000f57600080fd5b6103408061001e6000396000f300606060405260043610610061576000357c0100000000000000000000000000000000000000000000000000000000900463ffffffff1680623495a414610066578063057ae235146100bb5780631998aeef146100d05780634979440a146100f2575b600080fd5b341561007157600080fd5b61007961011b565b604051808273ffffffffffffffffffffffffffffffffffffffff1673ffffffffffffffffffffffffffffffffffffffff16815260200191505060405180910390f35b34156100c657600080fd5b6100ce610144565b005b6100d86101c9565b604051808215151515815260200191505060405180910390f35b34156100fd57600080fd5b61010561030a565b6040518082815260200191505060405180910390f35b60008060009054906101000a900473ffffffffffffffffffffffffffffffffffffffff16905090565b60006001541015156101c25760018054036001819055506000809054906101000a900473ffffffffffffffffffffffffffffffffffffffff1673ffffffffffffffffffffffffffffffffffffffff166108fc60019081150290604051600060405180830381858888f1935050505015156101bd57600080fd5b6101c7565b600080fd5b565b60006001543411151561021f573373ffffffffffffffffffffffffffffffffffffffff166108fc349081150290604051600060405180830381858888f19350505050151561021657600080fd5b60009050610307565b6000809054906101000a900473ffffffffffffffffffffffffffffffffffffffff1673ffffffffffffffffffffffffffffffffffffffff166108fc6001549081150290604051600060405180830381858888f19350505050156102cc57336000806101000a81548173ffffffffffffffffffffffffffffffffffffffff021916908373ffffffffffffffffffffffffffffffffffffffff1602179055503460018190555060019050610307565b3373ffffffffffffffffffffffffffffffffffffffff166108fc349081150290604051600060405180830381858888f1935050505050600090505b90565b60006001549050905600a165627a7a7230582071edd75f51df78841478b07875d20706dac5096bbf70dffc00c85e139f84558c0029",
  "source": "pragma solidity 0.4.19;\n\nimport \"./AuctionInterface.sol\";\n\n/** @title BadAuction */\ncontract BadAuction is AuctionInterface {\n\n\n\t/* Bid function, vulnerable to reentrency attack.\n\t * Must return true on successful send and/or bid,\n\t * bidder reassignment\n\t * Must return false on failure and send people\n\t * their funds back\n\t */\n\tfunction bid() payable external returns (bool) {\n\t\tif (msg.value <= highestBid) {\n\t\t\trequire(msg.sender.send(msg.value));\n\t\t\treturn false;\n\t\t} else {\n\t\t\tif (highestBidder.send(highestBid)){\n\t\t\t\thighestBidder = msg.sender;\n            \thighestBid = msg.value;\n            \treturn true;\n            } else {\n            \tmsg.sender.send(msg.value);\n            \treturn false;\n            }\n\t\t}\n\t}\n\n\n\t/* \tReduce bid function. Vulnerable to attack.\n\t\tAllows current highest bidder to reduce\n\t\ttheir bid by 1. Do NOT make changes here.\n\t\tInstead notice the vulnerabilities, and\n\t\timplement the function properly in GoodAuction.sol  */\n\n\tfunction reduceBid() external {\n\t    if (highestBid >= 0) {\n\t        highestBid = highestBid - 1;\n\t        require(highestBidder.send(1));\n\t    } else {\n\t    \trevert();\n\t    }\n\t}\n\n\n\t/* \tRemember this fallback function\n\t\tgets invoked if somebody calls a\n\t\tfunction that does not exist in this\n\t\tcontract. But we're good people so we don't\n\t\twant to profit on people's mistakes.\n\t\tHow do we send people their money back?  */\n\n\tfunction () payable {\n\t\trevert();\n\t}\n\n}\n",
  "sourcePath": "/Users/rachelye/Desktop/blockchaindev/sp18-lab03/contracts/BadAuction.sol",
  "compiler": {
    "name": "solc",
    "version": "0.4.19+commit.c4cbbb05.Emscripten.clang"
  },
  "schemaVersion": "1.0.1",
  "updatedAt": "2018-03-01T23:29:02.236Z"
}